{
  "_format": "hh-sol-artifact-1",
  "contractName": "Lottery",
  "sourceName": "contracts/Lottery.sol",
  "abi": [
    {
      "inputs": [],
      "stateMutability": "nonpayable",
      "type": "constructor"
    },
    {
      "anonymous": false,
      "inputs": [
        {
          "indexed": false,
          "internalType": "address",
          "name": "_to",
          "type": "address"
        },
        {
          "indexed": false,
          "internalType": "uint256",
          "name": "_winnings",
          "type": "uint256"
        }
      ],
      "name": "AwardWinnings",
      "type": "event"
    },
    {
      "anonymous": false,
      "inputs": [],
      "name": "NoWinner",
      "type": "event"
    },
    {
      "anonymous": false,
      "inputs": [],
      "name": "ResetLottery",
      "type": "event"
    },
    {
      "anonymous": false,
      "inputs": [
        {
          "indexed": true,
          "internalType": "address",
          "name": "_from",
          "type": "address"
        },
        {
          "indexed": false,
          "internalType": "uint256",
          "name": "_quantity",
          "type": "uint256"
        }
      ],
      "name": "TicketsBought",
      "type": "event"
    },
    {
      "inputs": [
        {
          "internalType": "uint256",
          "name": "number",
          "type": "uint256"
        }
      ],
      "name": "buyTickets",
      "outputs": [
        {
          "internalType": "bool",
          "name": "success",
          "type": "bool"
        }
      ],
      "stateMutability": "payable",
      "type": "function"
    },
    {
      "inputs": [],
      "name": "contractBalance",
      "outputs": [
        {
          "internalType": "uint256",
          "name": "",
          "type": "uint256"
        }
      ],
      "stateMutability": "view",
      "type": "function"
    },
    {
      "inputs": [],
      "name": "generateWinners",
      "outputs": [],
      "stateMutability": "nonpayable",
      "type": "function"
    },
    {
      "inputs": [],
      "name": "getBalance",
      "outputs": [
        {
          "internalType": "uint256",
          "name": "",
          "type": "uint256"
        }
      ],
      "stateMutability": "view",
      "type": "function"
    },
    {
      "inputs": [
        {
          "internalType": "address",
          "name": "_account",
          "type": "address"
        }
      ],
      "name": "getTicketBalance",
      "outputs": [
        {
          "internalType": "uint256",
          "name": "balance",
          "type": "uint256"
        }
      ],
      "stateMutability": "view",
      "type": "function"
    },
    {
      "inputs": [
        {
          "internalType": "uint256",
          "name": "",
          "type": "uint256"
        }
      ],
      "name": "holders",
      "outputs": [
        {
          "internalType": "address",
          "name": "",
          "type": "address"
        }
      ],
      "stateMutability": "view",
      "type": "function"
    },
    {
      "inputs": [],
      "name": "lotteryDuration",
      "outputs": [
        {
          "internalType": "uint256",
          "name": "",
          "type": "uint256"
        }
      ],
      "stateMutability": "view",
      "type": "function"
    },
    {
      "inputs": [],
      "name": "lotteryStart",
      "outputs": [
        {
          "internalType": "uint256",
          "name": "",
          "type": "uint256"
        }
      ],
      "stateMutability": "view",
      "type": "function"
    },
    {
      "inputs": [],
      "name": "owner",
      "outputs": [
        {
          "internalType": "address",
          "name": "",
          "type": "address"
        }
      ],
      "stateMutability": "view",
      "type": "function"
    },
    {
      "inputs": [
        {
          "internalType": "uint256",
          "name": "",
          "type": "uint256"
        }
      ],
      "name": "players",
      "outputs": [
        {
          "internalType": "address",
          "name": "",
          "type": "address"
        }
      ],
      "stateMutability": "view",
      "type": "function"
    },
    {
      "inputs": [
        {
          "internalType": "uint256",
          "name": "",
          "type": "uint256"
        }
      ],
      "name": "prevWinners",
      "outputs": [
        {
          "internalType": "address",
          "name": "",
          "type": "address"
        }
      ],
      "stateMutability": "view",
      "type": "function"
    },
    {
      "inputs": [
        {
          "internalType": "address",
          "name": "",
          "type": "address"
        }
      ],
      "name": "ticketHolders",
      "outputs": [
        {
          "internalType": "uint256",
          "name": "",
          "type": "uint256"
        }
      ],
      "stateMutability": "view",
      "type": "function"
    },
    {
      "inputs": [],
      "name": "ticketsIssued",
      "outputs": [
        {
          "internalType": "uint256",
          "name": "",
          "type": "uint256"
        }
      ],
      "stateMutability": "view",
      "type": "function"
    },
    {
      "inputs": [],
      "name": "totalEthWon",
      "outputs": [
        {
          "internalType": "uint256",
          "name": "",
          "type": "uint256"
        }
      ],
      "stateMutability": "view",
      "type": "function"
    },
    {
      "inputs": [],
      "name": "winner",
      "outputs": [
        {
          "internalType": "address",
          "name": "",
          "type": "address"
        }
      ],
      "stateMutability": "view",
      "type": "function"
    },
    {
      "stateMutability": "payable",
      "type": "receive"
    }
  ],
  "bytecode": "0x608060405234801561001057600080fd5b5033600360006101000a81548173ffffffffffffffffffffffffffffffffffffffff021916908373ffffffffffffffffffffffffffffffffffffffff1602179055506000600681905550426008819055506078600981905550611162806100786000396000f3fe6080604052600436106100ec5760003560e01c80638e2ea3aa1161008a578063dfbf53ae11610059578063dfbf53ae1461030c578063e5da378f14610337578063f71d96cb14610374578063fb5274e5146103b1576100f3565b80638e2ea3aa1461024e57806395bc20ea1461028b5780639dbb616f146102b6578063cd8cc844146102e1576100f3565b80632f366637116100c65780632f3666371461018b578063734d13b8146101bb5780638b7afe2e146101f85780638da5cb5b14610223576100f3565b806312065fe0146100f85780632a11ced0146101235780632d97902f14610160576100f3565b366100f357005b600080fd5b34801561010457600080fd5b5061010d6103c8565b60405161011a9190610cdc565b60405180910390f35b34801561012f57600080fd5b5061014a60048036038101906101459190610d28565b6103d0565b6040516101579190610d96565b60405180910390f35b34801561016c57600080fd5b50610175610403565b6040516101829190610cdc565b60405180910390f35b6101a560048036038101906101a09190610d28565b610409565b6040516101b29190610dcc565b60405180910390f35b3480156101c757600080fd5b506101e260048036038101906101dd9190610e13565b61070a565b6040516101ef9190610cdc565b60405180910390f35b34801561020457600080fd5b5061020d610722565b60405161021a9190610cdc565b60405180910390f35b34801561022f57600080fd5b50610238610728565b6040516102459190610d96565b60405180910390f35b34801561025a57600080fd5b5061027560048036038101906102709190610d28565b61074e565b6040516102829190610d96565b60405180910390f35b34801561029757600080fd5b506102a061078d565b6040516102ad9190610cdc565b60405180910390f35b3480156102c257600080fd5b506102cb610793565b6040516102d89190610cdc565b60405180910390f35b3480156102ed57600080fd5b506102f6610799565b6040516103039190610cdc565b60405180910390f35b34801561031857600080fd5b5061032161079f565b60405161032e9190610d96565b60405180910390f35b34801561034357600080fd5b5061035e60048036038101906103599190610e13565b6107c5565b60405161036b9190610cdc565b60405180910390f35b34801561038057600080fd5b5061039b60048036038101906103969190610d28565b61080d565b6040516103a89190610d96565b60405180910390f35b3480156103bd57600080fd5b506103c661084c565b005b600047905090565b60016020528060005260406000206000915054906101000a900473ffffffffffffffffffffffffffffffffffffffff1681565b60095481565b600060095460085461041b9190610e6f565b421061045c576040517f08c379a000000000000000000000000000000000000000000000000000000000815260040161045390610f00565b60405180910390fd5b600073ffffffffffffffffffffffffffffffffffffffff166001600084815260200190815260200160002060009054906101000a900473ffffffffffffffffffffffffffffffffffffffff1673ffffffffffffffffffffffffffffffffffffffff16146104fe576040517f08c379a00000000000000000000000000000000000000000000000000000000081526004016104f590610f6c565b60405180910390fd5b61050733610a91565b15610570576002339080600181540180825580915050600190039060005260206000200160009091909190916101000a81548173ffffffffffffffffffffffffffffffffffffffff021916908373ffffffffffffffffffffffffffffffffffffffff1602179055505b816000803373ffffffffffffffffffffffffffffffffffffffff1673ffffffffffffffffffffffffffffffffffffffff168152602001908152602001600020819055506000803373ffffffffffffffffffffffffffffffffffffffff1673ffffffffffffffffffffffffffffffffffffffff16815260200190815260200160002054600660008282546106039190610e6f565b92505081905550336001600084815260200190815260200160002060006101000a81548173ffffffffffffffffffffffffffffffffffffffff021916908373ffffffffffffffffffffffffffffffffffffffff160217905550346007600082825461066e9190610e6f565b925050819055503373ffffffffffffffffffffffffffffffffffffffff167fb24ee662b0a257d0321d324e737d2507fbe45df8af8d0da951f630f3754eb6a06000803373ffffffffffffffffffffffffffffffffffffffff1673ffffffffffffffffffffffffffffffffffffffff168152602001908152602001600020546040516106f99190610cdc565b60405180910390a260019050919050565b60006020528060005260406000206000915090505481565b60075481565b600360009054906101000a900473ffffffffffffffffffffffffffffffffffffffff1681565b6004818154811061075e57600080fd5b906000526020600020016000915054906101000a900473ffffffffffffffffffffffffffffffffffffffff1681565b600a5481565b60065481565b60085481565b600560009054906101000a900473ffffffffffffffffffffffffffffffffffffffff1681565b60008060008373ffffffffffffffffffffffffffffffffffffffff1673ffffffffffffffffffffffffffffffffffffffff168152602001908152602001600020549050919050565b6002818154811061081d57600080fd5b906000526020600020016000915054906101000a900473ffffffffffffffffffffffffffffffffffffffff1681565b60095460085461085c9190610e6f565b421161089d576040517f08c379a000000000000000000000000000000000000000000000000000000000815260040161089490610fd8565b60405180910390fd5b600060016006546001436108b19190610ff8565b6108bb919061105b565b6108c59190610e6f565b9050600073ffffffffffffffffffffffffffffffffffffffff166001600083815260200190815260200160002060009054906101000a900473ffffffffffffffffffffffffffffffffffffffff1673ffffffffffffffffffffffffffffffffffffffff1603610968577f8b9ae95f2188c3c8e65f290154f5b6aff8906871ef4e0a382a400e1b501e91d960405160405180910390a1610962610b3d565b50610a8e565b6001600082815260200190815260200160002060009054906101000a900473ffffffffffffffffffffffffffffffffffffffff16600560006101000a81548173ffffffffffffffffffffffffffffffffffffffff021916908373ffffffffffffffffffffffffffffffffffffffff1602179055506004600560009054906101000a900473ffffffffffffffffffffffffffffffffffffffff169080600181540180825580915050600190039060005260206000200160009091909190916101000a81548173ffffffffffffffffffffffffffffffffffffffff021916908373ffffffffffffffffffffffffffffffffffffffff160217905550610a8c600560009054906101000a900473ffffffffffffffffffffffffffffffffffffffff16610bd2565b505b50565b600080600090505b600280549050811015610b32578273ffffffffffffffffffffffffffffffffffffffff1660028281548110610ad157610ad061108c565b5b9060005260206000200160009054906101000a900473ffffffffffffffffffffffffffffffffffffffff1673ffffffffffffffffffffffffffffffffffffffff1603610b21576000915050610b38565b80610b2b906110bb565b9050610a99565b50600190505b919050565b6000600954600854610b4f9190610e6f565b4211610b90576040517f08c379a0000000000000000000000000000000000000000000000000000000008152600401610b8790610fd8565b60405180910390fd5b4260088190555060786009819055507f893ef2883e1d002809b0ecad6cae93cb02eb514120b5f0b472f986d0d5f216a360405160405180910390a16001905090565b6000600954600854610be49190610e6f565b4210610c25576040517f08c379a0000000000000000000000000000000000000000000000000000000008152600401610c1c90610f00565b60405180910390fd5b8173ffffffffffffffffffffffffffffffffffffffff166108fc6007549081150290604051600060405180830381858888f19350505050158015610c6d573d6000803e3d6000fd5b507fbcf3be2d085a0c7c417736f3d8ac9677742eaafc8bea4dd1925f3e06220558df82600754604051610ca1929190611103565b60405180910390a16000600781905550610cb9610b3d565b5060019050919050565b6000819050919050565b610cd681610cc3565b82525050565b6000602082019050610cf16000830184610ccd565b92915050565b600080fd5b610d0581610cc3565b8114610d1057600080fd5b50565b600081359050610d2281610cfc565b92915050565b600060208284031215610d3e57610d3d610cf7565b5b6000610d4c84828501610d13565b91505092915050565b600073ffffffffffffffffffffffffffffffffffffffff82169050919050565b6000610d8082610d55565b9050919050565b610d9081610d75565b82525050565b6000602082019050610dab6000830184610d87565b92915050565b60008115159050919050565b610dc681610db1565b82525050565b6000602082019050610de16000830184610dbd565b92915050565b610df081610d75565b8114610dfb57600080fd5b50565b600081359050610e0d81610de7565b92915050565b600060208284031215610e2957610e28610cf7565b5b6000610e3784828501610dfe565b91505092915050565b7f4e487b7100000000000000000000000000000000000000000000000000000000600052601160045260246000fd5b6000610e7a82610cc3565b9150610e8583610cc3565b9250828201905080821115610e9d57610e9c610e40565b5b92915050565b600082825260208201905092915050565b7f4e6f742074696d65000000000000000000000000000000000000000000000000600082015250565b6000610eea600883610ea3565b9150610ef582610eb4565b602082019050919050565b60006020820190508181036000830152610f1981610edd565b9050919050565b7f556e617661696c61626c65000000000000000000000000000000000000000000600082015250565b6000610f56600b83610ea3565b9150610f6182610f20565b602082019050919050565b60006020820190508181036000830152610f8581610f49565b9050919050565b7f4e6f742066696e69736865640000000000000000000000000000000000000000600082015250565b6000610fc2600c83610ea3565b9150610fcd82610f8c565b602082019050919050565b60006020820190508181036000830152610ff181610fb5565b9050919050565b600061100382610cc3565b915061100e83610cc3565b925082820390508181111561102657611025610e40565b5b92915050565b7f4e487b7100000000000000000000000000000000000000000000000000000000600052601260045260246000fd5b600061106682610cc3565b915061107183610cc3565b9250826110815761108061102c565b5b828206905092915050565b7f4e487b7100000000000000000000000000000000000000000000000000000000600052603260045260246000fd5b60006110c682610cc3565b91507fffffffffffffffffffffffffffffffffffffffffffffffffffffffffffffffff82036110f8576110f7610e40565b5b600182019050919050565b60006040820190506111186000830185610d87565b6111256020830184610ccd565b939250505056fea26469706673582212200c2caaf5b5882d571d3e43ed9237aacfd31cf80ff3c219a1eac94eb574fbcd4d64736f6c63430008110033",
  "linkReferences": {},
  "deployedLinkReferences": {}
}